:020000040800F2
:10000000882D0020DD010008997B00083F280008AA
:10001000957B0008CD0800089F80000800000000C4
:10002000000000000000000000000000057D000846
:10003000050A0008000000000D7C0008197E000879
:10004000F7010008F7010008F7010008F7010008B0
:10005000F7010008F7010008F7010008F7010008A0
:10006000F7010008F7010008F7010008F701000890
:10007000F7010008F7010008F7010008F701000880
:10008000F7010008F7010008F7010008F701000870
:10009000F7010008F7010008F7010008F701000860
:1000A000F7010008F7010008F7010008F701000850
:1000B000F7010008F7010008F7010008F701000840
:1000C000F7010008F7010008F7010008F701000830
:1000D000F70100087D7E0008F7010008F70100081D
:1000E000F7010008F7010008F7010008F701000810
:1000F000F7010008F7010008F7010008F701000800
:10010000F7010008F7010008F7010008F7010008EF
:10011000F7010008F7010008F7010008F7010008DF
:10012000F7010008F7010008F7010008F7010008CF
:1001300000F002F800F042F80AA090E8000C8244B7
:100140008344AAF10107DA4501D100F037F8AFF294
:10015000090EBAE80F0013F0010F18BFFB1A43F0A5
:100160000103184790F40000B0F40000103A24BFD7
:1001700078C878C1FAD8520724BF30C830C144BF0C
:1001800004680C607047000000230024002500264E
:10019000103A28BF78C1FBD8520728BF30C148BFEA
:1001A0000B607047642900F06F80782900F0A6800A
:1001B000002070471FB51FBD10B510BD00F024FA18
:1001C0001146FFF7F7FF08F015FC00F042FA03B400
:1001D000FFF7F2FF03BC07F06BFF00000948804700
:1001E00009480047FEE7FEE7FEE7FEE7FEE7FEE719
:1001F000FEE7FEE7FEE7FEE704480549054A064B31
:10020000704700001D7E000831010008882700208B
:10021000882D0020882900208829002070470000B0
:100220000FB4044910B503AA029800F0BFF910BC3E
:100230005DF814FB5000002070B504468569006825
:10024000C10601D5302600E02026C00707D070BDCA
:10025000D4E9012130469047206A401C20626D1E7F
:10026000F6D570BD70B5044685690078C00707D122
:1002700070BDD4E9012120209047206A401C2062F3
:100280006D1EF6D570BD00002DE9F0410646002434
:1002900010687529314615A510D0AFF300800028ED
:1002A00002DA404212A507E031688A0701D511A59C
:1002B00002E0490704D510A5012401E0AFF3008056
:1002C00000210A2306F1240707E0B0FBF3F203FB49
:1002D0001200303078541046491C0028F5D12346CE
:1002E0002A463046BDE8F04100F006B900000000A3
:1002F0002D0000002B0000002000000070B5044617
:100300000D4621461068AFF300802188090502D50B
:100310000F4A7A4402E00E4A7A440E32002104F178
:10032000240305E000F00F060009965D5E54491CA9
:100330000028F7D120780023000704D5702D02D0C3
:1003400009B1022311322046BDE8704000F0D4B854
:10035000A2F200002DE9F05F894604464FF0000A42
:10036000DFF824B1FB44C0F820A02046E1688847AC
:1003700000287DD0252806D0D4E901219047206AA5
:10038000401C2062F1E700255F462046E16888476F
:100390002028064607DB312E05D2B81910F8200CAC
:1003A00008B10543F1E7A80701D525F00405C4F815
:1003B0001CA00027C4F818A02A2E09D0304607F048
:1003C00070FE38B304EB8708303EC8F8186019E0B7
:1003D00059F8041B204604EB87029161E1688847C5
:1003E000012F064618D1E069002820DA25F0200503
:1003F0001DE0D8F8180000EB800006EB4000303814
:10040000C8F818002046E1688847064607F049FE0C
:100410000028EED1012F0AD02E2E08D12046E16807
:1004200088477F1C0646022F45F02005C4DBA069E3
:10043000002803DA404245F00105A061E80701D039
:1004400025F01005A6B1A6F14100192802D82036E2
:1004500045F400654A463146204625604D46FFF783
:10046000A1FE60B1012807D0ED1D25F0070000E0D6
:1004700007E000F1080978E705F1040975E730465F
:100480007AE7206ABDE8F09F78F2000010B5203AC4
:10049000C0F00B80B1E81850203AA0E81850B1E83D
:1004A0001850A0E81850BFF4F5AF5FEA027C24BFF3
:1004B000B1E81850A0E8185044BF18C918C0BDE8EA
:1004C00010405FEA827C24BF51F8043B40F8043BB3
:1004D00008BF7047D20728BF31F8023B48BF11F868
:1004E000012B28BF20F8023B48BF00F8012B7047C2
:1004F00070477047704770472DE9F0470D469946A1
:100500009246044600F124080168880604D5E06993
:1005100021F01001216000E00120A84201DD471B0D
:1005200000E00027A1697A1902EB0900081AA0610E
:100530002078C00602D42046FFF77EFE002608E0A1
:10054000D4E901211AF806009047206A401C761C65
:1005500020624E45F4DB2078C0060AD52046FFF71E
:100560006BFE06E0D4E9012130209047206A401C50
:100570002062381EA7F10107F4DC07E0D4E901216D
:1005800018F805009047206A401C2062281EA5F13B
:100590000105F3DC2046FFF765FE2078000602D552
:1005A0000220BDE8F0870120FBE70000074B70B593
:1005B0000D467B4400F011F80446284600F020F870
:1005C00010B14FF0FF3070BD204670BD0B810000B0
:1005D00001694A1C02610878704700B58FB0CDE907
:1005E00001310021059105497944CDE903101146F7
:1005F0006846FFF7AFFE0FB000BD0000E5FFFFFF4C
:10060000007B00F080007047754600F029F8AE4688
:1006100005006946534620F00700854618B020B50E
:10062000FFF7EAFDBDE820404FF000064FF000075D
:100630004FF000084FF0000B21F00701AC46ACE88A
:10064000C009ACE8C009ACE8C009ACE8C0098D46F7
:1006500070470446AFF300802046FFF7B8FD000066
:1006600000487047282700202DE9F04F9FB006462C
:1006700078223F4901A8FFF709FF4FF00009CA4659
:10068000CB4600200090002525E000241DE0621CE0
:1006900056F8221056F8240009F07DFB13D256F8C4
:1006A0002470601C56F8200046F82400601C46F8B0
:1006B000207001A810F8048001A9601C085C08558E
:1006C000601C01F80080601CC4B2C5F17800A04233
:1006D000DDDC681CC5B2782DD7DB26A0FFF7A0FDB6
:1006E000002506E001A8415D24A0FFF799FD681CE4
:1006F000C5B2282DF6DB002536E001A8405D30B1FB
:10070000012809D002280CD0032814D10EE009F1E9
:10071000010000F0FF090EE00AF1010000F0FF0AFD
:1007200009E00BF1010000F0FF0B04E00098401C11
:10073000C0B2009000BF00BFB9F10A0F03DB002078
:100740001FB0BDE8F08FBAF10A0F01DB0120F7E717
:10075000BBF10A0F01DB0220F2E700980A2801DB57
:10076000FF20EDE7681CC5B2282DC6DBFF20E7E7B8
:100770001CD100080D0A200D0A000000202564206D
:10078000000000002DE9F04FB1B00646B4224A49FE
:1007900004A8FFF77BFE4FF00009CA46CB460020B5
:1007A000039002900190002525E000241DE0621CCA
:1007B00056F8221056F8240009F0EDFA13D256F834
:1007C0002470601C56F8200046F82400601C46F88F
:1007D000207004A810F8048004A9601C085C085567
:1007E000601C01F80080601CC4B2C5F1B400A042D6
:1007F000DDDC681CC5B2B42DD7DB30A0FFF710FDDF
:10080000002506E004A8415D2EA0FFF709FD681C45
:10081000C5B2302DF6DB002549E004A8405D06286E
:1008200022D2DFE800F003080D12171C09F10100C5
:1008300000F0FF0918E00AF1010000F0FF0A13E0E0
:100840000BF1010000F0FF0B0EE00398401CC0B25A
:10085000039009E00298401CC0B2029004E00198A5
:10086000401CC0B2019000BF00BFB9F1080F03DB0C
:10087000012031B0BDE8F08FBAF1080F01DB022092
:10088000F7E7BBF1080F01DB0320F2E70398082824
:1008900001DB0420EDE70298082801DB0520E8E7EA
:1008A0000198082801DBFF20E3E7681CC5B2302D62
:1008B000B3DBFF20DDE7000004F500080D0A200D82
:1008C0000A000000202564200000000000BFFEE7B1
:1008D00010B58EB036A0FFF7A3FC01F0B3FB4FF4C8
:1008E0007A7007F0A1FE4DF6FF7040F23B13EB2249
:1008F00005210090084602F02BFD32A010210B4686
:10090000C822CDE900105021142007F0A3F833A02D
:1009100010210B46C822CDE900106421142007F0F5
:1009200099F83DE04FF40041314801F07FFB002889
:1009300036D14FF4FA7007F077FE0021032000F063
:10094000ABF802A807F0B8FB02A8FFF78DFE04463B
:10095000214628A0FFF764FC4DF6FF7040F23B13E0
:10096000EB2278210090052002F0F2FC14B908F087
:1009700061FA15E0012C02D108F080FA10E0022C97
:1009800002D108F033FA0BE0601C48B94DF6FF7055
:1009900040F23B13EB2278210090052002F0D8FCB6
:1009A0002021174801F042FB0028BBD10EB010BD3A
:1009B00047657420696E204361697175616E2E2EE2
:1009C0002E0D0A005072657373204B455931207407
:1009D0006F206A756467652E0000000050726573B1
:1009E00073204B45593020746F20657869742E0050
:1009F00000080140534F5254203A20256400000063
:100A00000010014070472DE9F74F89469246642750
:100A1000B9F1000F09D0B9F1010F0AD0B9F1020FF5
:100A20000BD0B9F1030F10D10BE0002401250826EB
:100A30000BE002240325042607E0042405250226F2
:100A400003E006240725012600BF00BF18210098F7
:100A500001F06CF8804606E01821009801F066F875
:100A60008046781E07B21FB108EA06000028F3D0BE
:100A700087B12146009801F059F84FEA004B29460A
:100A8000009801F053F840EA0B0BCAF800B00120BF
:100A9000BDE8FE8F0020FBE770B5D2B005460E46DC
:100AA000032D7DD00020F8490880ABE002A8F6496C
:100AB000098800EB411200212A20FFF7A4FF02A8B9
:100AC000F149098800EB411000210268EFA0FFF70F
:100AD000A7FB02A8EC49098800EB4110021D012187
:100AE0002A20FFF790FF02A8E749098800EB411090
:100AF00001214268E5A0FFF793FB02A8E2490988BB
:100B000000EB411000F1080202212A20FFF77BFFD1
:100B100002A8DD49098800EB411002218268DBA0B0
:100B2000FFF77EFB02A8D849098800EB411000F1CD
:100B30000C0203212A20FFF766FF02A8D249098888
:100B400000EB41100321C268D0A0FFF769FB02A8A7
:100B5000CD49098800EB411000F1100200212B2043
:100B6000FFF751FF02A8C849098800EB4110042192
:100B70000269C6A0FFF754FB02A8C349098800EB2D
:100B8000411000F1140201212B20FFF73CFF02A8C5
:100B9000BD49098800EB411005214269BBA000E076
:100BA00036E0FFF73DFB02A8B749098800EB41108A
:100BB00000F1180202212B20FFF725FF02A8B249FD
:100BC000098800EB411006218269B0A0FFF728FBDD
:100BD00002A8AD49098800EB411000F11C02032175
:100BE0002B20FFF710FF02A8A749098800EB41104E
:100BF0000721C269A5A0FFF713FBA3480088401C8A
:100C0000A1490880A04800880A28FFF64FAF4FE0AE
:100C100002AA00212A20FFF7F6FE00219BA0029ADB
:100C2000FFF7FEFA03AA01212A20FFF7ECFE0121BB
:100C300096A0039AFFF7F4FA04AA02212A20FFF7EC
:100C4000E2FE022191A0049AFFF7EAFA05AA032125
:100C50002A20FFF7D8FE03218CA0059AFFF7E0FABF
:100C600006AA00212B20FFF7CEFE042187A0069ABA
:100C7000FFF7D6FA07AA01212B20FFF7C4FE0521B2
:100C800082A0079AFFF7CCFA08AA02212B20FFF7CF
:100C9000BAFE06217DA0089AFFF7C2FA09AA03212D
:100CA0002B20FFF7B0FE072178A0099AFFF7B8FACA
:100CB000002D78D126B1012E24D0022E66D143E03A
:100CC00000241CE000207049088012E002A86E4950
:100CD000098800EB411050F8240071496A4A1288D3
:100CE00001EB421141F8240067480088401C664926
:100CF0000880654800880A28E8DB601CC4B2082C1C
:100D0000E0DB4EE000241CE000205F49088012E098
:100D100002A85D49098800EB411050F824006149A0
:100D2000594A128801EB421141F8240056480088C4
:100D3000401C55490880544800880A28E8DB601C9C
:100D4000C4B2082CE0DB2CE000241CE000204E495B
:100D5000088012E002A84C49098800EB411050F8C5
:100D600024005149484A128801EB421141F82400FD
:100D700045480088401C44490880434800880A28A8
:100D8000E8DB601CC4B2082CE0DB0AE047A00A21C3
:100D90000B46F022CDE900100021084606F05AFE6D
:100DA00000BFAFE1FFE7012D6BD126B1012E24D0AA
:100DB000022E67D143E000241CE000203249088065
:100DC00012E002A83049098800EB411050F82410C5
:100DD0003E482D4A128800EB421040F824102A4861
:100DE0000088401C28490880274800880A28E8DB3A
:100DF000601CC4B2082CE0DB7AE000241CE0002078
:100E00002149088012E002A81F49098800EB41101F
:100E100050F824002E491C4A128801EB421141F877
:100E2000240019480088401C17490880164800888B
:100E30000A28E8DB601CC4B2082CE0DB58E0002480
:100E40001CE000201049088012E002A80E49098821
:100E500000EB411050F824001E490B4A128801EBA8
:100E6000421141F8240008480088401C06490880C7
:100E7000054800880A28E8DB601CC4B2082CE0DBC7
:100E800036E036E028E00000440000200D0A206330
:100E9000685B25645D203D2025303878200D0A00F0
:100EA00060040020A0050020E00600207472616E3E
:100EB000696E672074696D65207365676D656E2066
:100EC0006661756C742E2E2E200000002008002014
:100ED00060090020A00A0020AFF230000A210B4672
:100EE000F022CDE900100021084606F0B3FD00BF56
:100EF00008E1022D79D126B1012E24D0022E66D12F
:100F000043E000241CE000207F49088012E002A892
:100F10007D49098800EB411050F824107B487A4A3B
:100F2000128800EB421040F8241077480088401CDB
:100F300075490880744800880A28E8DB601CC4B240
:100F4000082CE0DB4FE000241CE000206E49088004
:100F500012E002A86C49098800EB411050F82410F7
:100F60006B48694A128800EB421040F8241066482A
:100F70000088401C64490880634800880A28E8DB30
:100F8000601CC4B2082CE0DB2DE000241CE0002033
:100F90005D49088012E002A85B49098800EB411016
:100FA00050F824005B49584A128801EB421141F87D
:100FB000240055480088401C534908805248008846
:100FC0000A28E8DB601CC4B2082CE0DB0BE0AFF2BF
:100FD00024100A210B46F022CDE90010002108461A
:100FE00006F038FD00BF8DE0FFE7032D0FD14AA0CA
:100FF000FFF716F9002407E002A850F824004A4938
:1010000041F82400601CC4B2082CF5DB7AE0042D02
:1010100078D126B1012E24D0022E66D143E00024DF
:101020001CE000203849088012E002A836490988EF
:1010300000EB411050F824003C49334A128801EB80
:10104000421141F8240030480088401C2E49088095
:101050002D4800880A28E8DB601CC4B2082CE0DBBD
:101060004FE000241CE000202749088012E002A87D
:101070002549098800EB411050F824102C48224AD9
:10108000128800EB421040F824101F480088401CD2
:101090001D4908801C4800880A28E8DB601CC4B28F
:1010A000082CE0DB2DE000241CE00020164908801D
:1010B00012E002A81449098800EB411050F82400FE
:1010C0001C49114A128801EB421141F824000E48D4
:1010D0000088401C0C4908800B4800880A28E8DB7F
:1010E000601CC4B2082CE0DB0BE0AFF240200A2108
:1010F0000B46F022CDE900100021084606F0AAFCBC
:1011000000BF00BF52B070BD44000020E00B0020C3
:10111000200D0020600E00200D0A204A554447454E
:10112000204D4F44450D0A00A00F0020A0000020D4
:10113000E00100202003002070B5D2B005460E4625
:10114000052D7DD00020F8490880ABE002A8F649C3
:10115000098800EB411200212A20FFF754FC02A865
:10116000F149098800EB411000210268EFA0FFF768
:1011700057F802A8EC49098800EB4110021D012133
:101180002A20FFF740FC02A8E749098800EB41103C
:1011900001214268E5A0FFF743F802A8E249098867
:1011A00000EB411000F1080202212A20FFF72BFC7E
:1011B00002A8DD49098800EB411002218268DBA00A
:1011C000FFF72EF802A8D849098800EB411000F17A
:1011D0000C0203212A20FFF716FC02A8D249098835
:1011E00000EB41100321C268D0A0FFF719F802A854
:1011F000CD49098800EB411000F1100200212B209D
:10120000FFF701FC02A8C849098800EB411004213E
:101210000269C6A0FFF704F802A8C349098800EBD9
:10122000411000F1140201212B20FFF7ECFB02A872
:10123000BD49098800EB411005214269BBA000E0CF
:1012400036E0FEF7EDFF02A8B749098800EB411030
:1012500000F1180202212B20FFF7D5FB02A8B249AA
:10126000098800EB411006218269B0A0FEF7D8FF83
:1012700002A8AD49098800EB411000F11C020321CE
:101280002B20FFF7C0FB02A8A749098800EB4110FB
:101290000721C269A5A0FEF7C3FFA3480088401C30
:1012A000A1490880A04800880A28FFF64FAF4FE008
:1012B00002AA00212A20FFF7A6FB00219BA0029A88
:1012C000FEF7AEFF03AA01212A20FFF79CFB0121B4
:1012D00096A0039AFEF7A4FF04AA02212A20FFF792
:1012E00092FB022191A0049AFEF79AFF05AA03211E
:1012F0002A20FFF788FB03218CA0059AFEF790FFB8
:1013000006AA00212B20FFF77EFB042187A0069A66
:10131000FEF786FF07AA01212B20FFF774FB0521AA
:1013200082A0079AFEF77CFF08AA02212B20FFF774
:101330006AFB06217DA0089AFEF772FF09AA032125
:101340002B20FFF760FB072178A0099AFEF768FFC2
:10135000002D78D126B1012E24D0022E66D143E093
:1013600000241CE000207049088012E002A86E49A9
:10137000098800EB411050F8240071496A4A12882C
:1013800001EB421141F8240067480088401C66497F
:101390000880654800880A28E8DB601CC4B2082C75
:1013A000E0DB4EE000241CE000205F49088012E0F2
:1013B00002A85D49098800EB411050F824006149FA
:1013C000594A128801EB421141F82400564800881E
:1013D000401C55490880544800880A28E8DB601CF6
:1013E000C4B2082CE0DB2CE000241CE000204E49B5
:1013F000088012E002A84C49098800EB411050F81F
:1014000024105148484A128800EB421040F824103A
:1014100045480088401C44490880434800880A2801
:10142000E8DB601CC4B2082CE0DB0AE047A00A211C
:101430000B46F022CDE900100021084606F00AFB19
:1014400000BFA7E2FFE7012D6BD126B1012E24D00A
:10145000022E67D143E000241CE0002032490880BE
:1014600012E002A83049098800EB411050F824002E
:101470003E492D4A128801EB421141F824002A48C6
:101480000088401C28490880274800880A28E8DB93
:10149000601CC4B2082CE0DB7AE000241CE00020D1
:1014A0002149088012E002A81F49098800EB411079
:1014B00050F824002E491C4A128801EB421141F8D1
:1014C000240019480088401C1749088016480088E5
:1014D0000A28E8DB601CC4B2082CE0DB58E00024DA
:1014E0001CE000201049088012E002A80E4909887B
:1014F00000EB411050F824001E490B4A128801EB02
:10150000421141F8240008480088401C0649088020
:10151000054800880A28E8DB601CC4B2082CE0DB20
:1015200036E036E028E00000480000200D0A206385
:10153000685B25645D203D2025303878200D0A0049
:1015400080130020C0140020001600207472616E09
:10155000696E672074696D65207365676D656E20BF
:101560006661756C742E2E2E20000000401700203E
:1015700080180020C0190020AFF230000A210B466D
:10158000F022CDE900100021084606F063FA00BF02
:1015900000E2022D79D126B1012E24D0022E66D18F
:1015A00043E000241CE00020FB49088012E002A870
:1015B000F949098800EB411050F82410F748F64A21
:1015C000128800EB421040F82410F3480088401CB9
:1015D000F1490880F04800880A28E8DB601CC4B2A2
:1015E000082CE0DB4FE000241CE00020EA490880E2
:1015F00012E002A8E849098800EB411050F82400E5
:10160000E749E54A128801EB421141F82400E2481B
:101610000088401CE0490880DF4800880A28E8DB91
:10162000601CC4B2082CE0DB2DE000241CE000208C
:10163000D949088012E002A8D749098800EB411077
:1016400050F82400D749D44A128801EB421141F8DE
:101650002400D1480088401CCF490880CE4800882B
:101660000A28E8DB601CC4B2082CE0DB0BE0AFF218
:1016700024100A210B46F022CDE900100021084673
:1016800006F0E8F900BF85E1FFE7032D79D126B127
:10169000012E24D0022E66D143E000241CE000205D
:1016A000BD49088012E002A8BB49098800EB41103F
:1016B00050F82410BC48B84A128800EB421040F899
:1016C0002410B5480088401CB3490880B2480088FF
:1016D0000A28E8DB601CC4B2082CE0DB4FE00024E1
:1016E0001CE00020AC49088012E002A8AA49098841
:1016F00000EB411050F82400AC49A74A128801EBD6
:10170000421141F82400A4480088401CA2490880E6
:10171000A14800880A28E8DB601CC4B2082CE0DB82
:101720002DE000241CE000209B49088012E002A864
:101730009949098800EB411050F824109C48964ABA
:10174000128800EB421040F8241093480088401C97
:1017500091490880904800880A28E8DB601CC4B2E0
:10176000082CE0DB0BE0AFF21C200A210B46F02234
:10177000CDE900100021084606F06CF900BF09E130
:10178000FFE7042D79D126B1012E24D0022E66D197
:1017900043E000241CE000207F49088012E002A8FA
:1017A0007D49098800EB411050F8240081497A4AAC
:1017B000128801EB421141F8240077480088401C50
:1017C00075490880744800880A28E8DB601CC4B2A8
:1017D000082CE0DB4FE000241CE000206E4908806C
:1017E00012E002A86C49098800EB411050F824006F
:1017F0007149694A128801EB421141F82400664898
:101800000088401C64490880634800880A28E8DB97
:10181000601CC4B2082CE0DB2DE000241CE000209A
:101820005D49088012E002A85B49098800EB41107D
:1018300050F824006149584A128801EB421141F8DE
:10184000240055480088401C5349088052480088AD
:101850000A28E8DB601CC4B2082CE0DB0BE0AFF226
:1018600014300A210B46F022CDE900100021084671
:1018700006F0F0F800BF8DE0FFE7052D0FD150A076
:10188000FEF7CEFC002407E002A850F824005049DF
:1018900041F82400601CC4B2082CF5DB7AE0062D68
:1018A00078D126B1012E24D0022E66D143E0002447
:1018B0001CE000203849088012E002A83649098857
:1018C00000EB411050F824004249334A128801EBE2
:1018D000421141F8240030480088401C2E490880FD
:1018E0002D4800880A28E8DB601CC4B2082CE0DB25
:1018F0004FE000241CE000202749088012E002A8E5
:101900002549098800EB411050F824103248224A3A
:10191000128800EB421040F824101F480088401C39
:101920001D4908801C4800880A28E8DB601CC4B2F6
:10193000082CE0DB2DE000241CE000201649088084
:1019400012E002A81449098800EB411050F8240065
:101950002249114A128801EB421141F824000E4835
:101960000088401C0C4908800B4800880A28E8DBE6
:10197000601CC4B2082CE0DB0BE0AFF230400A215F
:101980000B46F022CDE900100021084606F062F86F
:1019900000BF00BF52B070BD48000020001B0020F7
:1019A000401C0020801D0020C01E002000200020C0
:1019B0004021002080220020C0230020002500209C
:1019C0000D0A204A55444745204D4F44450D0A0015
:1019D00040260020C00F00200011002040120020EF
:1019E00070B5054600247F21284600F09FF8044684
:1019F00043F2550084427DD1214642A0FEF710FCFF
:101A0000284600F0B9F841F288320021284600F05B
:101A1000B3F941F288320121284600F0ADF941F2D4
:101A200088320221284600F0A7F941F288320321CA
:101A3000284600F0A1F9C8220021284600F0C6F986
:101A4000C8220121284600F0C1F9C82202212846F7
:101A500000F0BCF9C8220321284600F0B7F90223A0
:101A60001A460021284600F091F802231A46012167
:101A7000284600F08BF802231A461946284600F043
:101A800085F802231A460321284600F07FF800213A
:101A9000284600F031F90021284600F0D6F801214F
:101AA000284600F0BDF80021284600F010F9052373
:101AB00002220121284600F044F90B220021284689
:101AC00000F0D8F80B220121284600F0D3F80B22B1
:101AD0000221284600F0CEF80B220321284600F010
:101AE000C9F80021284600F097F94FF4FA7006F083
:101AF0009BFD00E001E0012070BD06A0FEF790FB19
:101B00000020F9E70D0A464443323231342049447B
:101B10003A2578000D0A4644433232313420496E6A
:101B20006974204661696C656421210070B50446C2
:101B30000D4601F013F86106080E00F0DFFF01F01A
:101B40005DF8284600F0DAFF01F058F801F006F8D9
:101B5000012101EB4401C8B200F0D0FF01F04EF8C2
:101B6000012000F08DFF0602002000F089FF0643EF
:101B700001F01AF8304670BD10B504464FF400422B
:101B80001C21204600F05DF910BD00002DE9F04752
:101B900081460C4615461E464FF0000A4FF6FF7070
:101BA00000EA0530C6F3090140EA010A1948055563
:101BB000304607F0C8FD07463A460B460020164956
:101BC00007F03CFC154A02EBC40203C234B1012CFD
:101BD0000AD0022C0ED0032C18D111E05246142149
:101BE000484600F02EF911E052461521484600F013
:101BF00028F90BE052461621484600F022F905E08C
:101C000052461721484600F01CF900BF00BFBDE84E
:101C1000F087000038000020882A814170000020F1
:101C200070B506460D4600241A213046FFF77EFFA8
:101C300004464FF6FF5004400DB144F400742246B0
:101C40001A21304600F0FDF870BD70B506460D460D
:101C500000241A213046FFF769FF04464FF2FF7057
:101C600004400DB144F4006422461A21304600F0CD
:101C7000E8F870BD2DE9F04106460C4615460027F0
:101C80004FF6FF7000EAC52734B1012C0AD0022CB0
:101C90000ED0032C18D111E03A461E21304600F038
:101CA000D0F811E03A461F21304600F0CAF80BE0A8
:101CB0003A462021304600F0C4F805E03A4621219A
:101CC000304600F0BEF800BF00BFBDE8F08170B53F
:101CD00006460D4600241A213046FFF727FF04462A
:101CE0004FF6BF7004400DB144F0400422461A2163
:101CF000304600F0A6F870BD70B506460D460024CB
:101D00001A213046FFF712FF04464FF67F70044059
:101D10000DB144F0800422461A21304600F091F8BB
:101D200019213046FFF702FF04464FF6FE700440CB
:101D30000DB144F0010422461921304600F081F82B
:101D400070BD2DE9F04107460C4616461D464FF082
:101D5000000844B1E00340EA463040F402702843F2
:101D60001FFA80F801E045F4027842461B2138460C
:101D700000F067F8BDE8F08170B506460C461546E0
:101D8000FF2D00DC70BD34B1012C0AD0022C0ED026
:101D9000032C18D111E02A460821304600F051F8F2
:101DA00011E02A460921304600F04BF80BE02A46A4
:101DB0000A21304600F045F805E02A460B2130465E
:101DC00000F03FF800BF00BF00BFDBE770B505467D
:101DD0000C46164634B1012C0AD0022C0ED0032C2E
:101DE00018D111E032461021284600F02AF811E0FF
:101DF00032461121284600F024F80BE03246122129
:101E0000284600F01EF805E032461321284600F06F
:101E100018F800BF00BF70BD70B506460D4600241F
:101E20001A213046FFF782FE04464DF6FF7004404B
:101E30000DB144F4005422461A21304600F001F856
:101E400070BD2DE9F04105460E46144600F086FEB1
:101E50006906080E00F052FE00F0D0FE304600F099
:101E60004DFE00F0CBFE2712384600F047FE00F092
:101E7000C5FEE7B2384600F041FE00F0BFFE00F0BC
:101E800093FEBDE8F0812DE9F041024600250026D1
:101E9000002000230024002791F803C00CF00F0558
:101EA00091F803C00CF0100CBCF1000F03D091F8B6
:101EB00002C04CEA050591F800C0BCF1000F31D01A
:101EC000146800202BE04FF0010C0CFA00F3B1F87D
:101ED00000C00CEA03069E4220D183004FF00F0C95
:101EE0000CFA03F7BC4305FA03FC4CEA040491F82E
:101EF00003C0BCF1280F06D14FF0010C0CFA00FC16
:101F0000C2F814C00AE091F803C0BCF1480F05D133
:101F10004FF0010C0CFA00FCC2F810C0401C08285D
:101F2000D1D31460B1F800C0BCF1FF0F34DD5468A8
:101F300000202EE000F1080C4FF0010808FA0CF325
:101F4000B1F800C00CEA03069E4221D183004FF095
:101F50000F0C0CFA03F7BC4305FA03FC4CEA04042B
:101F600091F803C0BCF1280F05D100F1080C08FA64
:101F70000CF8C2F8148091F803C0BCF1480F07D1E7
:101F800000F1080C4FF0010808FA0CF8C2F81080B4
:101F9000401C0828CED35460BDE8F081F0B50A4655
:101FA000002300240021002500F00046B6F1004F78
:101FB00002D11D4EF16901E01B4E7168C0F303456B
:101FC00083B200F44016B6F5401F08D121F07061CD
:101FD000154E766826F07066134F7E6012E000F4AE
:101FE0008016B6F5801F06D1032606FA05F4A14334
:101FF00041F0706106E0460D360103FA06F6B14382
:1020000041F0706122B1460D360103FA06F6314304
:1020100000F00046B6F1004F02D1034EF16101E03D
:10202000014E7160F0BD000000000140024600203A
:1020300093680B400BB1012000E000207047016164
:10204000704700001CB5AAA0FEF7EAF800210420A2
:10205000FEF722FD01210420FEF71EFD02210420CF
:10206000FEF71AFDA7A0FEF7DBF84DF6FF70C823B8
:10207000EB223C210090052001F06AF9A5A0102177
:102080000B46C822CDE900103C210F2005F0E2FCF0
:1020900000BF002000F014FE0228FAD14FF41670A1
:1020A00006F0C2FA00210846FEF7F6FC4DF6FF7076
:1020B000C823EB2250210090052001F049F999A096
:1020C00010210B46C822CDE9001050210F2005F049
:1020D000C1FC00BF002000F0F3FD0228FAD14FF44C
:1020E000167006F0A1FA01210020FEF7D5FC93A09E
:1020F000FEF796F84DF6FF70C823EB22642100909E
:10210000052001F025F991A010210B46C822CDE948
:1021100000106421142005F09DFC00BF002000F099
:10212000CFFD0228FAD14FF4167006F07DFA022195
:102130000020FEF7B1FC73A0FEF772F84DF6FF70B9
:10214000C823EB223C210090052001F001F984A076
:1021500010210B46C822CDE900103C21142005F0C7
:1021600079FC00BF002000F0ABFD0228FAD14FF44B
:10217000167006F059FA00210120FEF78DFC6FA0C1
:10218000FEF74EF84DF6FF70C823EB225021009069
:10219000052001F0DDF863A010210B46C822CDE92F
:1021A00000105021142005F055FC00BF002000F065
:1021B00087FD0228FAD14FF4167006F035FA012196
:1021C0000846FEF769FC5DA0FEF72AF84DF6FF70A1
:1021D000C823EB2264210090052001F0B9F85BA030
:1021E00010210B46C822CDE900106421142005F00F
:1021F00031FC00BF002000F063FD0228FAD14FF44B
:10220000167006F011FA02210120FEF745FC3DA0F0
:10221000FEF706F84DF6FF70C823EB223C21009034
:10222000052001F095F852A010210B46C822CDE9F7
:1022300000103C21142005F00DFC00BF002000F030
:102240003FFD0228FAD14FF4167006F0EDF9002197
:102250000220FEF721FC39A0FDF7E2FF4DF6FF70EA
:10226000C823EB2250210090052001F071F82DA029
:1022700010210B46C822CDE900105021142005F092
:10228000E9FB00BF002000F01BFD0228FAD14FF44B
:10229000167006F0C9F901210220FEF7FDFB27A008
:1022A000FDF7BEFF4DF6FF70C823EB2264210090BE
:1022B000052001F04DF825A010210B46C822CDE9DC
:1022C00000106421142005F0C5FB00BF002000F0C1
:1022D000F7FC0228FAD14FF4167006F0A5F9022196
:1022E0000846FEF7D9FB07A0FDF79AFF1CBD0000CA
:1022F00047657420696E20547261696E2E2E2E0D12
:102300000A0000000D0A2D2D2D2D352D2D2D2D0D02
:102310000A0000004B65793120676573747572653A
:10232000203100004B6579313A546865207365634C
:102330006F6E642074696D65000000000D0A2D2D1C
:102340002D2D3132332D2D2D2D0D0A004B65793178
:102350003A5468652074686972642074696D650018
:102360004B657931206765737475726520320000A2
:102370004B65793120676573747572652033000091
:102380001CB5FEA0FDF74CFF00210620FEF7D4FE91
:1023900001210620FEF7D0FE02210620FEF7CCFE2A
:1023A0004DF6FF70C823EB223C210090052000F081
:1023B000CFFFF7A010210B46C822CDE900103C2129
:1023C000142005F047FB00BF002000F079FC022834
:1023D000FAD14FF4167006F027F900210846FEF7EF
:1023E000ABFE4DF6FF70C823EB2250210090052074
:1023F00000F0AEFFEAA010210B46C822CDE9001084
:102400005021142005F026FB00BF002000F058FCEE
:102410000228FAD14FF4167006F006F901210020C7
:10242000FEF78AFE4DF6FF70C823EB226421009070
:10243000052000F08DFFE0A010210B46C822CDE959
:1024400000106421142005F005FB00BF002000F0FF
:1024500037FC0228FAD14FF4167006F0E5F8022195
:102460000020FEF769FE4DF6FF70C823EB223C21E9
:102470000090052000F06CFFD4A010210B46C8226C
:10248000CDE900103C21142005F0E4FA00BF002043
:1024900000F016FC0228FAD14FF4167006F0C4F8CA
:1024A00000210120FEF748FE4DF6FF70C823EB2205
:1024B00050210090052000F04BFFB9A010210B46E1
:1024C000C822CDE900105021142005F0C3FA00BF46
:1024D000002000F0F5FB0228FAD14FF4167006F048
:1024E000A3F801210846FEF727FE4DF6FF70C8232A
:1024F000EB2264210090052000F02AFFAEA01021FD
:102500000B46C822CDE900106421142005F0A2FA80
:1025100000BF002000F0D4FB0228FAD14FF416705F
:1025200006F082F802210120FEF706FE4DF6FF704C
:10253000C823EB223C210090052000F009FFA7A052
:1025400010210B46C822CDE900103C21142005F0D3
:1025500081FA00BF002000F0B3FB0228FAD14FF44B
:10256000167006F061F800210220FEF7E5FD4DF639
:10257000FF70C823EB2250210090052000F0E8FEF8
:1025800087A010210B46C822CDE90010502114204D
:1025900005F060FA00BF002000F092FB0228FAD19B
:1025A0004FF4167006F040F801210220FEF7C4FD3A
:1025B0004DF6FF70C823EB2264210090052000F047
:1025C000C7FE7DA010210B46C822CDE90010642172
:1025D000142005F03FFA00BF002000F071FB022834
:1025E000FAD14FF4167006F01FF802210846FEF7E4
:1025F000A3FD4DF6FF70C823EB223C21009005207F
:1026000000F0A6FE79A010210B46C822CDE90010EB
:102610003C21142005F01EFA00BF002000F050FB02
:102620000228FAD14FF4167005F0FEFF00210320B6
:10263000FEF782FD4DF6FF70C823EB22502100907B
:10264000052000F085FE6DA010210B46C822CDE9C3
:1026500000105021142005F0FDF900BF002000F00B
:102660002FFB0228FAD14FF4167005F0DDFF01218F
:102670000320FEF761FD4DF6FF70C823EB226421B5
:102680000090052000F064FE62A010210B46C822D5
:10269000CDE900106421142005F0DCF900BF002012
:1026A00000F00EFB0228FAD14FF4167005F0BCFFC3
:1026B00002210320FEF740FD4DF6FF70C823EB22F8
:1026C0003C210090052000F043FE57A010210B464E
:1026D000C822CDE900103C21142005F0BBF900BF51
:1026E000002000F0EDFA0228FAD14FF4167005F040
:1026F0009BFF00210420FEF71FFD4DF6FF70C8234D
:10270000EB2250210090052000F022FE3BA010217A
:102710000B46C822CDE900105021142005F09AF98B
:1027200000BF002000F0CCFA0228FAD14FF4167056
:1027300005F07AFF01210420FEF7FEFC4DF6FF7044
:10274000C823EB2264210090052000F001FE31A097
:1027500010210B46C822CDE900106421142005F099
:1027600079F900BF002000F0ABFA0228FAD14FF44B
:10277000167005F059FF022104205DE047657420C2
:10278000696E20547261696E2E2E2E0D0A000000B3
:102790004B6579312067657374757265203100006F
:1027A0004B65793120546865207365636F6E6420D2
:1027B00074696D65000000004B65793120546865CF
:1027C0002074686972642074696D65004B657931A5
:1027D0002067657374757265203200004B6579312E
:1027E0002067657374757265203300004B6579311D
:1027F0002067657374757265203400004B6579310C
:102800003A546865207365636F6E642074696D6502
:10281000000000004B6579313A546865207468699E
:1028200072642074696D65004B657931206765734A
:102830007475726520350000FEF77EFC1CBD00BF7C
:10284000FEE7000010B58EB03CA0FDF7E9FCFFF7F5
:1028500097FD4FF47A7005F0E7FE4DF6FF7040F2F9
:102860003B13EB2205210090084600F071FD38A0D3
:1028700010210B46C822CDE900105021142005F08C
:10288000E9F839A010210B46C822CDE900106421D7
:10289000142005F0DFF848E04FF400413748FFF717
:1028A000C5FB002841D14FF4967005F0BDFE002114
:1028B0000520FEF741FC02A805F0F0FC02A8FDF798
:1028C00061FF044621462EA0FDF7AAFC4DF6FF70DD
:1028D00040F23B13EB2278210090052000F038FDF8
:1028E000012C02D106F060FA1FE0022C02D106F0A2
:1028F0000DFB1AE0032C02D106F0E4FA15E0042CDB
:1029000002D106F02FFA10E0052C02D106F006FAEB
:102910000BE0601C48B94DF6FF7040F23B13EB2210
:1029200078210090052000F013FD20211748FFF7C3
:102930007DFB0028B0D10EB010BD000047657420AB
:10294000696E204875617175616E2E2E2E0D0A001C
:102950005072657373204B45593120746F206A752E
:102960006467652E000000005072657373204B454C
:10297000593020746F20657869742E00000801407A
:10298000534F5254203A20256400000000100140AB
:1029900000B500201049086005F0DEFD0F48006812
:1029A00020F470400D4908600846006840F440502B
:1029B000086000200A49C1F88C0105F0CDFD012016
:1029C0000549086005F0C8FD00200549C1F89001DF
:1029D00005F0C2FD00BD000090812142000C0140C5
:1029E0000080214208B50121082005F011F90121DC
:1029F000084605F00DF901210A48FFF7CFFA182023
:102A0000ADF8000010208DF8030003208DF80200BF
:102A100069460548FFF737FA18210348FFF70FFB0F
:102A200008BD000000023000000C014000B500208D
:102A30001049086005F090FD0F48006820F47040D0
:102A40000D4908600846006840F4405008600120C5
:102A50000A49C1F88C0105F07FFD01200549086095
:102A600005F07AFD00200549C1F8900105F074FDDC
:102A700000BD000090812142000C014000802142F5
:102A800010B5034600220120194908601948006862
:102A900020F47040174908600846006840F4004080
:102AA0000860002415E05006020E00201049091DA0
:102AB000086005F051FD01200F49C1F8900105F0B3
:102AC0004BFD0B488038006808B1501CC2B2601C36
:102AD000C4B2082CE7DB00200549091D086013B9C2
:102AE000FFF7A4FF01E0FFF753FF104610BD000001
:102AF0008C812142000C01400080214200B5024639
:102B00001348006820F470401149086008460068C6
:102B100040F44050086000200E490860002314E093
:102B200005F01AFDD0090B49091F08605006020E76
:102B300001200949C1F8900105F00EFD002005496A
:102B4000086005F009FD581CC3B2082BE8DB00BD86
:102B5000000C0140908121420080214200B50F48C5
:102B6000006820F470400D4908600846006840F491
:102B70004050086001200A4908600A49C1F89001E4
:102B800005F0EAFC00200649086005F0E5FC00209D
:102B90000449C1F8900105F0DFFC00BD000C0140C4
:102BA0008C8121420080214200B51148006820F448
:102BB00070400F4908600846006840F440500860C3
:102BC00000200C49086005F0C7FC00200A49C1F844
:102BD0008C0105F0C1FC01200649086005F0BCFC31
:102BE00001200549C1F88C0105F0B6FC00BD0000CC
:102BF000000C0140908121420080214200B500225A
:102C00001448006820F470401249086008460068C3
:102C100040F40040086001200F49086005F09CFC6A
:102C200001200E49C1F8900105F096FC07E0501C08
:102C3000C2B2FA2A03DDFFF7B7FF012000BD064844
:102C4000803800680028F2D10349091D086000BFE0
:102C5000F4E70000000C01408C81214200802142F9
:102C600008B50121142004F0D3FF01211148FFF71A
:102C700095F94FF40040ADF8000048208DF80300AE
:102C800069460D48FFF7FFF82020ADF80000482006
:102C90008DF8030069460948FFF7F5F80120ADF803
:102CA000000028208DF8030069460348FFF7EBF881
:102CB00008BD000000023000000801400010014083
:102CC00010B5044614B10120234908702248007849
:102CD00058B320212148FFF7A9F950B14FF4004122
:102CE0001F48FFF7A3F920B101211D48FFF79EF906
:102CF000D8B90A2005F098FC002017490870202157
:102D00001648FFF793F908B9012010BD4FF40041B0
:102D10001348FFF78BF908B90220F6E701211048A4
:102D2000FFF784F9A8B90320EFE720210B48FFF74C
:102D30007DF901280DD1C1030948FFF777F9012872
:102D400007D101210648FFF771F910B901200249A6
:102D500008700020D9E7000040000020001001406A
:102D60000008014070B5044600261D4805884088CB
:102D700045431B48808846F60401884216D118480E
:102D80008079012812D10020154988712A204881B4
:102D90002B2088810021084604F0EAFB012010491D
:102DA00088712B2048812A20888103E00021084671
:102DB00004F0DEFB04F0A6FE00260DE04FF4807068
:102DC0000849086140004861074804608020486164
:102DD000086180000861761CAE42EFD370BD000030
:102DE00090000020001001400C0C014010B504467A
:102DF000002C66D16C498871F02008804FF4A070D7
:102E000048800846808849F2413188420BD06648A4
:102E1000808846F60401884205D06348808845F2E0
:102E2000103188421AD12C205F4908812A2048811C
:102E30002B2088810846808846F60401884205D008
:102E40005948808845F21031884206D14FF4A0706D
:102E5000554908804FF4F0704880A1E052488088BE
:102E600045F21051884210D14FF430504E4908813C
:102E70004FF4285048814FF42C5088814FF4F07063
:102E800008804FF4487048808AE04748808841F6BF
:102E9000631188420DD12C20434908812B204881A1
:102EA0002A2088814FF4F07008804FF448704880E1
:102EB00076E022203C490881202048812120888119
:102EC0006EE00120384988714FF4A0700880F0202E
:102ED00048800846808849F24131884205D032480E
:102EE000808845F21031884207D12C202E49088174
:102EF0002A2048812B2088813FE02B48808846F695
:102F00000401884207D12C20274908812B204881C1
:102F10002A20888131E02448808845F21051884277
:102F200010D14FF43050204908814FF42850488187
:102F30004FF42C5088814FF4487008804FF4F070A3
:102F400048801AE01848808841F6631188420DD104
:102F50002C20154908812A2048812B2088814FF494
:102F6000487008804FF4F070488006E022200E4937
:102F7000088121204881202088810B48808846F6DE
:102F80000401884205D00848808845F21031884203
:102F900006D14FF4F070044908804FF4A0704880C7
:102FA000002004F0B9F810BD9000002030B50446B0
:102FB0000D462946204604F0DBFA04F0A3FD4FF449
:102FC000807007490861400048610648008806494A
:102FD000086080200249486108618000086130BDB6
:102FE000001001403C0000200C0C014070B504466C
:102FF0000D461646D348808849F24131884205D0B3
:10300000D048808845F21031884240D1CD49488966
:1030100004F066FD4FF48070CB49086140004861C0
:103020002012CA4908608020C749486108618000B1
:1030300008614010086140004861E0B2C34908607F
:103040008020C1494861086180000861BD498889C4
:1030500004F046FD4FF48070BB49086140004861B0
:103060002812BA4908608020B74948610861800089
:1030700008614010086140004861E8B2B349086047
:103080008020B14948610861800008613DE1AD4898
:10309000808845F21051884250D1AA49488904F0ED
:1030A0001FFD4FF48070A84908614000486120125C
:1030B000A64908608020A449486108618000086131
:1030C000A0494989491C88B204F00AFD4FF4807078
:1030D0009D49086140004861E0B29C490860802039
:1030E000994948610861800008619649888904F01F
:1030F000F7FC4FF480709449086140004861281241
:103100009249086080209049486108618000086108
:103110008C498989491C88B204F0E2FC4FF4807024
:103120008949086140004861E8B288490860802008
:1031300085494861086180000861E6E0814880882F
:1031400041F6631188427DD17E48807920B97D485F
:103150000088401E001B84B27A49488904F0C0FCF4
:103160004FF4807078490861400048612012774927
:10317000086080207449486108618000086140103F
:10318000086140004861E0B27049086080206E49E3
:103190004861086180000861401008614000486192
:1031A00020126A49086080206749486108618000F0
:1031B00008614010086140004861E0B2634908605E
:1031C0008020614948610861800008615D49888903
:1031D00004F086FC4FF480705B4908614000486150
:1031E00028125A49086080205749486108618000C8
:1031F00008614010086140004861E8B25349086026
:1032000080205149486108618000086140100861D0
:103210004000486128124D49086080204A494861B1
:103220000861800008614010086140004861E8B210
:10323000464908608020444948610861800008616F
:1032400063E0FFE73F48808846F60401884249D1A1
:103250003C488079012804D13A480088401E001B70
:1032600084B23849488904F03BFC4FF480703649F9
:1032700008614000486120123449086080203249CA
:1032800048610861800008614010086140004861A1
:10329000E0B22E49086080202B4948610861800017
:1032A00008612849888904F01BFC4FF48070264986
:1032B00008614000486128122449086080202249A2
:1032C0004861086180000861401008614000486161
:1032D000E8B21E49086080201B49486108618000EF
:1032E000086112E017488079012804D11548008848
:1032F000401E001B84B213494889214604F00AFC91
:1033000010498889294604F005FC4FF480700E4965
:103310004861400048610B4800890C4908608020E2
:103320000949486108618000086140100861400057
:103330004861064806608020486108618000086195
:1033400070BD000090000020001001400C0C0140F6
:103350002DE9FC4F05460E4617469846DDF82C90A1
:10336000002001902C48808846F60401884229D12B
:1033700029488079012825D1AB4635462648008862
:10338000C01B401E86B2474623480088A0EB0B00B6
:10339000401E1FFA80F800201F4988712A204881AA
:1033A0002B20888143463A4631462846CDF8009086
:1033B000FFF7CEFF0120184988712B2048812A2071
:1033C000888127E0781B401C80B2019034461FE0C2
:1033D0002146284604F0CCF804F094FB4FF0000A94
:1033E00011E04FF480700D490861400048610C48BD
:1033F000C0F80090802048610861800008610AF1EF
:1034000001001FFA80FA01988245EADB601C84B251
:103410004445DDDDBDE8FC8F900000200010014038
:103420000C0C014008B50121192004F0F1FB012129
:10343000FE48FEF7B3FD4FF4F860ADF80000102031
:103440008DF8030003208DF802006946F848FEF766
:103450001AFD4FF4F861F648FEF7F1FD4FF6FF70E4
:10346000ADF800006946F348FEF70DFD4FF6FF7119
:10347000F048FEF7E4FD322005F0D6F801210020E7
:1034800004F048FB322005F0CFF8002003F0D2FD15
:10349000E949888008468088FF280ADB084680883A
:1034A0004FF6FF71884204D0E3488088B0F5134F8F
:1034B0007ED1D32004F014FB03F084FD03F082FDE1
:1034C00003F080FDDC498880084680884FF6FF7154
:1034D00001EA0020D849888003F074FDD649898824
:1034E0000843D54988800846808849F2413188429E
:1034F0005ED0BF2004F0F4FA03F064FD03F062FD37
:1035000003F060FD03F05EFDCB49888008468088AB
:103510004FF6FF7101EA0020C749888003F052FD91
:10352000C54989880843C44988800846808846F68A
:103530000401884274D0D42004F0D2FA03F042FD92
:1035400003F040FD03F03EFDBB49888008468088BB
:103550004FF6FF7101EA0020B749888003F032FD81
:10356000B54989880843B44988800846808845F26F
:103570001031884254D04FF45A4004F0B1FA03F0AD
:1035800021FD4FF45B4004F0ABFA03F01BFDAA49A8
:103590008880084680884FF6FF7101EA0020A6491E
:1035A00088804FF45C4004F09BFA03F00BFD00E0D0
:1035B00036E0A149898808439F4988800846808869
:1035C000B0F5004F02D145F2105088809A488088AB
:1035D00045F21051884223D0A12004F081FA03F073
:1035E000F1FC9549888003F0EDFC934988800846FA
:1035F00080884FF6FF7101EA00208F49888003F030
:10360000E1FC8D49898808438B4988800846808879
:1036100045F26171884203D141F663108649888082
:103620008548808849F2413188427CD1CF2004F01E
:1036300057FA002004F042FAC12004F03FFA30208B
:1036400004F03CFAED2004F04BFA642004F036FA62
:10365000032004F033FA122004F030FA812004F041
:103660002DFAE82004F03CFA852004F027FA102017
:1036700004F024FA7A2004F021FACB2004F030FA86
:10368000392004F01BFA2C2004F018FA002004F072
:1036900015FA342004F012FA022004F00FFAF72091
:1036A00004F01EFA202004F009FAEA2004F018FAC7
:1036B000002004F003FA002004F000FAC02004F017
:1036C0000FFA1B2004F0FAF9C12004F009FA0120D6
:1036D00004F0F4F9C52004F003FA302004F0EEF908
:1036E000302004F0EBF9C72004F0FAF9B72004F019
:1036F000E5F9362004F0F4F9482004F0DFF93A2027
:1037000004F0EEF9552004F0D9F9B12004F0E8F9FD
:10371000002004F0D3F91A2004F0D0F9B62004F008
:10372000DFF90A2000E0A2E004F0C8F9A22004F0CA
:10373000C5F9F22004F0D4F9002004F0BFF92620E6
:1037400004F0CEF9012004F0B9F9E02004F0C8F942
:103750000F2004F0B3F92A2004F0B0F9282004F077
:10376000ADF9082004F0AAF90E2004F0A7F908200A
:1037700004F0A4F9542004F0A1F9A92004F09EF962
:10378000432004F09BF90A2004F098F90F2004F07C
:1037900095F9002004F092F9002004F08FF9002040
:1037A00004F08CF9002004F089F9E12004F098F984
:1037B000002004F083F9152004F080F9172004F0AC
:1037C0007DF9072004F07AF9112004F077F906203A
:1037D00004F074F92B2004F071F9562004F06EF90E
:1037E0003C2004F06BF9052004F068F9102004F087
:1037F00065F90F2004F062F93F2004F05FF93F20E3
:1038000004F05CF90F2004F059F92B2004F068F95A
:10381000002004F053F9002004F050F9012004F0D6
:103820004DF93F2004F04AF92A2007E00002300059
:1038300000100140000C01409000002004F050F9FD
:10384000002004F03BF9002004F038F9002004F0D7
:1038500035F9EF2004F032F9112004F041F9782015
:1038600004F0E2FE292004F03BF903F09ABBFE4885
:10387000808846F6040188427ED1112004F030F998
:10388000142004F0D1FED02004F02AF9072004F01F
:1038900015F9422004F012F91D2004F00FF9D1208F
:1038A00004F01EF9002004F009F91A2004F006F9CA
:1038B000092004F003F9D22004F012F9012004F0E9
:1038C000FDF8222004F0FAF8C02004F009F91020D5
:1038D00004F0F4F83B2004F0F1F8002004F0EEF8D6
:1038E000022004F0EBF8112004F0E8F8C52004F001
:1038F000F7F8032004F0E2F8C82004F0F1F8002003
:1039000004F0DCF8252004F0D9F8212004F0D6F8E2
:10391000052004F0D3F8002004F0D0F80A2004F0C9
:10392000CDF8652004F0CAF8252004F0C7F8772008
:1039300004F0C4F8502004F0C1F80F2004F0BEF8E1
:10394000002004F0BBF8F82004F0CAF8012004F0CD
:10395000B5F8FE2004F0C4F8002004F0AFF802200F
:1039600004F0ACF8202004F0BBF8362004F0B8F8DE
:10397000082004F0A3F800E02AE03A2004F0B0F8B0
:10398000552004F09BF82B2004F0AAF8002004F046
:1039900095F8002004F092F8012004F08FF83F2001
:1039A00004F08CF82A2004F09BF8002004F086F83C
:1039B000002004F083F8012004F080F8DF2004F0F8
:1039C0007DF8782004F030FE292004F089F84CE7D7
:1039D000A548808845F21031884240F07C87ED2070
:1039E00004F07EF8012004F069F8FE2004F066F887
:1039F000EE2004F075F8DE2004F060F8212004F0D9
:103A00005DF8F12004F06CF8012004F057F8DF2095
:103A100004F066F8102004F051F8C42004F060F8B7
:103A20008F2004F04BF8C62004F05AF8002004F070
:103A300045F8E22004F042F8E22004F03FF8E220EA
:103A400004F03CF8BF2004F04BF8AA2004F036F84C
:103A5000B02004F045F80D2004F030F8002004F008
:103A60002DF80D2004F02AF8002004F027F811208A
:103A700004F024F8002004F021F8192004F01EF8C6
:103A8000002004F01BF8212004F018F8002004F0B6
:103A900015F82D2004F012F8002004F00FF83D2056
:103AA00004F00CF8002004F009F85D2004F006F89A
:103AB000002004F003F85D2004F000F8002003F07B
:103AC000FDFFB12004F00CF8802003F0F7FF002088
:103AD00003F0F4FF8B2003F0F1FF002003F0EEFF72
:103AE000962003F0EBFF002003F0E8FFB22003F084
:103AF000F7FF002003F0E2FF002003F0DFFF0220C9
:103B000003F0DCFF002003F0D9FF032003F0D6FF11
:103B1000002003F0D3FFB32003F0E2FF002003F006
:103B2000CDFF002003F0CAFF002003F0C7FF0020F4
:103B300003F0C4FF002003F0C1FF002003F0BEFF2C
:103B4000002003F0BBFF002003F0B8FF002003F0CB
:103B5000B5FF002003F0B2FF002003F0AFFF00200C
:103B600003F0ACFF002003F0A9FF002003F0A6FF44
:103B7000002003F0A3FF002003F0A0FF002003F0CB
:103B80009DFF002003F09AFF002003F097FF002024
:103B900003F094FF002003F091FF002003F08EFF5C
:103BA000002003F08BFF002003F088FFB42003F017
:103BB00097FF8B2003F082FF002003F07FFF962009
:103BC00003F07CFF002003F079FFA12003F076FFD3
:103BD000002003F073FFB52003F082FF022003F002
:103BE0006DFF002003F06AFF032003F067FF002051
:103BF00003F064FF042003F061FF002003F05EFF88
:103C0000B62003F06DFF002003F058FF002003F002
:103C100055FFB72003F064FF002003F04FFF0020A2
:103C200003F04CFF3F2003F049FF002003F046FF64
:103C30005E2003F043FF002003F040FF642003F008
:103C40003DFF002003F03AFF8C2003F037FF0020F7
:103C500003F034FFAC2003F031FF002003F02EFF0F
:103C6000DC2003F02BFF01E090000020002003F097
:103C700025FF702003F022FF002003F01FFF90209B
:103C800003F01CFF002003F019FFEB2003F016FFE8
:103C9000002003F013FFDC2003F010FF002003F0EE
:103CA0000DFFB82003F01CFF002003F007FF0020E9
:103CB00003F004FF002003F001FF002003F0FEFEEC
:103CC000002003F0FBFE002003F0F8FE002003F0CC
:103CD000F5FE002003F0F2FEBA2003F001FF2420DD
:103CE00003F0ECFE002003F0E9FE002003F0E6FE06
:103CF000002003F0E3FEC12003F0F2FE202003F0D9
:103D0000DDFE002003F0DAFE542003F0D7FE002091
:103D100003F0D4FEFF2003F0D1FE002003F0CEFE1E
:103D2000C22003F0DDFE0A2003F0C8FE002003F0ED
:103D3000C5FE042003F0C2FE002003F0BFFEC32036
:103D400003F0CEFE3C2003F0B9FE002003F0B6FEE7
:103D50003A2003F0B3FE002003F0B0FE392003F058
:103D6000ADFE002003F0AAFE372003F0A7FE0020DE
:103D700003F0A4FE3C2003F0A1FE002003F09EFE11
:103D8000362003F09BFE002003F098FE322003F063
:103D900095FE002003F092FE2F2003F08FFE0020FE
:103DA00003F08CFE2C2003F089FE002003F086FE39
:103DB000292003F083FE002003F080FE262003F07C
:103DC0007DFE002003F07AFE242003F077FE002021
:103DD00003F074FE242003F071FE002003F06EFE59
:103DE000232003F06BFE002003F068FE3C2003F06C
:103DF00065FE002003F062FE362003F05FFE002027
:103E000003F05CFE322003F059FE002003F056FE62
:103E10002F2003F053FE002003F050FE2C2003F06F
:103E20004DFE002003F04AFE292003F047FE00204B
:103E300003F044FE262003F041FE002003F03EFE86
:103E4000242003F03BFE002003F038FE242003F082
:103E500035FE002003F032FE232003F02FFE002069
:103E600003F02CFEC42003F03BFE622003F026FE8C
:103E7000002003F023FE052003F020FE002003F0C5
:103E80001DFE842003F01AFE002003F017FEF02030
:103E900003F014FE002003F011FE182003F00EFEC4
:103EA000002003F00BFEA42003F008FE002003F026
:103EB00005FE182003F002FE002003F0FFFD502055
:103EC00003F0FCFD002003F0F9FD0C2003F0F6FDEB
:103ED000002003F0F3FD172003F0F0FD002003F0B5
:103EE000EDFD952003F0EAFD002003F0E7FDF3204F
:103EF00003F0E4FD002003F0E1FDE62003F0DEFD29
:103F0000002003F0DBFDC52003F0EAFD322003F0C2
:103F1000D5FD002003F0D2FD442003F0CFFD0020AA
:103F200003F0CCFD652003F0C9FD002003F0C6FDC1
:103F3000762003F0C3FD002003F0C0FD882003F0CD
:103F4000BDFD002003F0BAFDC62003F0C9FD20200E
:103F500003F0B4FD002003F0B1FD172003F0AEFD27
:103F6000002003F0ABFD012003F0A8FD002003F0CA
:103F7000A5FDC72003F0B4FD002003F09FFD002045
:103F800003F09CFD002003F099FD002003F096FD56
:103F9000C82003F0A5FD002003F090FD002003F0F1
:103FA0008DFD002003F08AFD002003F087FDC9206D
:103FB00003F096FD002003F081FD002003F07EFD5C
:103FC000002003F07BFD002003F078FD002003F0CB
:103FD00075FD002003F072FD002003F06FFD00204E
:103FE00003F06CFD002003F069FD002003F066FD86
:103FF000002003F063FD002003F060FD002003F0CB
:104000005DFD002003F05AFD002003F057FD002065
:1040100003F054FDE02003F063FD162003F04EFD95
:10402000002003F04BFD1C2003F048FD002003F0AE
:1040300045FD212003F042FD002003F03FFD362026
:1040400003F03CFD002003F039FD462003F036FD6F
:10405000002003F033FD522003F030FD002003F078
:104060002DFD642003F02AFD002003F027FD7A20B7
:1040700003F024FD002003F021FD8B2003F01EFD42
:10408000002003F01BFD992003F018FD002003F031
:1040900015FDA82003F012FD002003F00FFDB9204C
:1040A00003F00CFD002003F009FDC42003F006FD21
:1040B000002003F003FDCA2003F000FD002003F000
:1040C000FDFCD22003F0FAFC002003F0F7FCD9201D
:1040D00003F0F4FC002003F0F1FCE02003F0EEFC20
:1040E000002003F0EBFCF32003F0E8FC002003F0D9
:1040F000E5FCE12003F0F4FC162003F0DFFC0020D7
:1041000003F0DCFC1C2003F0D9FC002003F0D6FCFB
:10411000222003F0D3FC002003F0D0FC362003F073
:10412000CDFC002003F0CAFC452003F0C7FC0020B2
:1041300003F0C4FC522003F0C1FC002003F0BEFCDD
:10414000642003F0BBFC002003F0B8FC7A2003F0ED
:10415000B5FC002003F0B2FC8B2003F0AFFC002084
:1041600003F0ACFC992003F0A9FC002003F0A6FCAE
:10417000A82003F0A3FC002003F0A0FCB92003F06A
:104180009DFC002003F09AFCC42003F097FC002063
:1041900003F094FCCA2003F091FC002003F08EFC95
:1041A000D22003F08BFC002003F088FCD82003F021
:1041B00085FC002003F082FCE02003F07FFC00205F
:1041C00003F07CFCF32003F079FC002003F076FC84
:1041D000E22003F085FC052003F070FC002003F0D2
:1041E0006DFC0B2003F06AFC002003F067FC1B2031
:1041F00003F064FC002003F061FC342003F05EFC5B
:10420000002003F05BFC442003F058FC002003F086
:1042100055FC4F2003F052FC002003F04FFC6120BE
:1042200003F04CFC002003F049FC792003F046FC2D
:10423000002003F043FC882003F040FC002003F042
:104240003DFC972003F03AFC002003F037FCA62049
:1042500003F034FC002003F031FCB72003F02EFC07
:10426000002003F02BFCC22003F028FC002003F008
:1042700025FCC72003F022FC002003F01FFCD12006
:1042800003F01CFC002003F019FCD62003F016FC00
:10429000002003F013FCDD2003F010FC002003F0ED
:1042A0000DFCF32003F00AFC002003F007FCE320E0
:1042B00003F016FC052003F001FC002003F0FEFBD8
:1042C0000A2003F0FBFB002003F0F8FB1C2003F0A6
:1042D000F5FB002003F0F2FB332003F0EFFB00209E
:1042E00003F0ECFB442003F0E9FB002003F0E6FBC5
:1042F000502003F0E3FB002003F0E0FB622003F01A
:10430000DDFB002003F0DAFB782003F0D7FB002070
:1043100003F0D4FB882003F0D1FB002003F0CEFB98
:10432000972003F0CBFB002003F0C8FBA62003F08E
:10433000C5FB002003F0C2FBB72003F0BFFB002049
:1043400003F0BCFBC22003F0B9FB002003F0B6FB76
:10435000C72003F0B3FB002003F0B0FBD12003F033
:10436000ADFB002003F0AAFBD52003F0A7FB002043
:1043700003F0A4FBDD2003F0A1FB002003F09EFB73
:10438000F32003F09BFB002003F098FBE42003F0F4
:10439000A7FB012003F092FB002003F08FFB01201C
:1043A00003F08CFB002003F089FB022003F086FB66
:1043B000002003F083FB2A2003F080FB002003F0A1
:1043C0007DFB3C2003F07AFB002003F077FB4B20C1
:1043D00003F074FB002003F071FB5D2003F06EFB23
:1043E000002003F06BFB742003F068FB002003F057
:1043F00065FB842003F062FB002003F05FFB932049
:1044000003F05CFB002003F059FBA22003F056FBF5
:10441000002003F053FBB32003F050FB002003F017
:104420004DFBBE2003F04AFB002003F047FBC420F5
:1044300003F044FB002003F041FBCD2003F03EFBE2
:10444000002003F03BFBD32003F038FB002003F0F7
:1044500035FBDD2003F032FB002003F02FFBF320BF
:1044600003F02CFB002003F029FBE52003F038FBD0
:10447000002003F023FB002003F020FB002003F0CA
:104480001DFB002003F01AFB022003F017FB0020A5
:1044900003F014FB292003F011FB002003F00EFBB6
:1044A0003C2003F00BFB002003F008FB4B2003F043
:1044B00005FB002003F002FB5D2003F0FFFA002063
:1044C00003F0FCFA742003F0F9FA002003F0F6FA86
:1044D000842003F0F3FA002003F0F0FA932003F0B5
:1044E000EDFA002003F0EAFAA22003F0E7FA002038
:1044F00003F0E4FAB32003F0E1FA002003F0DEFA5F
:10450000BE2003F0DBFA002003F0D8FAC42003F049
:10451000D5FA002003F0D2FACD2003F0CFFA002024
:1045200003F0CCFAD32003F0C9FA002003F0C6FA56
:10453000DC2003F0C3FA002003F0C0FAF32003F0FC
:10454000BDFA002003F0BAFAE62003F0C9FA112000
:1045500003F0B4FA002003F0B1FA342003F0AEFA0D
:10456000002003F0ABFA562003F0A8FA002003F075
:10457000A5FA762003F0A2FA002003F09FFA772034
:1045800003F09CFA002003F099FA662003F096FAF3
:10459000002003F093FA882003F090FA002003F043
:1045A0008DFA992003F08AFA002003F087FABB20E5
:1045B00003F084FA002003F081FA992003F07EFAD8
:1045C000002003F07BFA662003F078FA002003F065
:1045D00075FA552003F072FA002003F06FFA5520A7
:1045E00003F06CFA002003F069FA452003F066FA44
:1045F000002003F063FA432003F060FA002003F088
:104600005DFA442003F05AFA002003F057FAE7203D
:1046100003F066FA322003F051FA002003F04EFA5C
:10462000552003F04BFA002003F048FA762003F0FF
:1046300045FA002003F042FA662003F03FFA00201A
:1046400003F03CFA672003F039FA002003F036FA51
:10465000672003F033FA002003F030FA872003F0DC
:104660002DFA002003F02AFA992003F027FA0020FF
:1046700003F024FABB2003F021FA002003F01EFA15
:10468000992003F01BFA002003F018FA772003F0BA
:1046900015FA002003F012FA442003F00FFA00206C
:1046A00003F00CFA562003F009FA002003F006FA92
:1046B000232003F003FA002003F000FA332003F074
:1046C000FDF9002003F0FAF9452003F0F7F9002086
:1046D00003F0F4F9E82003F003FA002003F0EEF908
:1046E000002003F0EBF9992003F0E8F9002003F033
:1046F000E5F9872003F0E2F9002003F0DFF98820D4
:1047000003F0DCF9002003F0D9F9772003F0D6F9A3
:10471000002003F0D3F9662003F0D0F9002003F065
:10472000CDF9882003F0CAF9002003F0C7F9AA20C8
:1047300003F0C4F9002003F0C1F9BB2003F0BEF977
:10474000002003F0BBF9992003F0B8F9002003F032
:10475000B5F9662003F0B2F9002003F0AFF9552057
:1047600003F0ACF9002003F0A9F9552003F0A6F9F5
:10477000002003F0A3F9442003F0A0F9002003F087
:104780009DF9442003F09AF9002003F097F9552091
:1047900003F094F9002003F091F9E92003F0A0F967
:1047A000AA2003F08BF9002003F088F9002003F021
:1047B00085F9002003F082F9002003F091F9AA2086
:1047C00003F07CF9CF2003F08BF9002003F076F999
:1047D000002003F073F9002003F070F9002003F0CB
:1047E0006DF9002003F06AF9002003F067F900205A
:1047F00003F064F9002003F061F9002003F05EF992
:10480000002003F05BF9002003F058F9002003F0CA
:1048100055F9002003F052F9002003F04FF9002071
:1048200003F04CF9002003F049F9002003F046F9A9
:10483000F02003F055F9002003F040F9502003F078
:104840003DF9002003F03AF9002003F037F9002089
:1048500003F034F9F32003F043F9002003F02EF9BC
:10486000F92003F03DF9062003F028F9102003F0A9
:1048700025F9292003F022F9002003F01FF93A203E
:1048800003F02EF9552003F019F9112003F028F94F
:10489000642003F0C9FE292003F022F9352003F03B
:1048A0001FF9002003F00AF9512003F019F9FF2045
:1048B00003F004F9532003F013F92C2003F0FEF861
:1048C000552003F00DF9822003F0F8F82C2003F0B6
:1048D00007F902F066BBFE48808845F21051884215
:1048E0007ED155214FF4704003F014F9AA214FF204
:1048F000010003F00FF952214FF2020003F00AF910
:1049000008214FF2030003F005F901214FF20400E2
:1049100003F000F90D214FF4304003F0FBF80D21B6
:104920004BF2010003F0F6F80D214BF2020003F008
:10493000F1F834214FF4364003F0ECF834214BF217
:10494000016003F0E7F834214BF2026003F0E2F873
:104950000D214FF4314003F0DDF80D214BF2011031
:1049600003F0D8F80D214BF2021003F0D3F83421F4
:104970004FF4374003F0CEF834214BF2017003F0CE
:10498000C9F834214BF2027003F0C4F800214FF44F
:10499000324003F0BFF800214BF2012003F0BAF8D7
:1049A00000214BF2022003F0B5F824214FF43840E7
:1049B00003F0B0F824214BF6010003F0ABF82421FA
:1049C0004BF6020003F0A6F801214FF43F4003F03C
:1049D000A1F80F214FF4334003F09CF80F2100E0C1
:1049E000FEE34BF2013003F095F80F214BF2023059
:1049F00003F090F834214FF4394003F08BF8342160
:104A00004BF6011003F086F834214BF6021003F048
:104A100081F808214FF4354003F07CF808214BF26F
:104A2000015003F077F808214BF2025003F072F8BE
:104A300003214FF4424003F06DF824214FF43A4033
:104A400003F068F824214BF6012003F063F82421D9
:104A50004BF6022003F05EF800214FF43C4003F0D7
:104A600059F878214BF6014003F054F800214BF639
:104A7000024003F04FF800214FF43D4003F04AF8A4
:104A800078214BF6015003F045F800214BF6025017
:104A900003F040F800214FF43E4003F03BF864215E
:104AA0004BF6016003F036F800214FF4514003F05B
:104AB00031F833214DF2011003F02CF800214DF2B2
:104AC000021003F027F834214DF2031003F022F80E
:104AD00000214DF2041003F01DF83A214DF20510AB
:104AE00003F018F800214DF2061003F013F84A21E4
:104AF0004DF2071003F00EF800214DF2081003F0FC
:104B000009F85C214DF2091003F004F800214DF280
:104B10000A1002F0FFFF81214DF20B1002F0FAFFA4
:104B200000214DF20C1002F0F5FFA6214DF20D1000
:104B300002F0F0FF00214DF20E1002F0EBFFE52134
:104B40004DF20F1002F0E6FF01214DF2101002F0BD
:104B5000E1FF13214DF2111002F0DCFF01214DF2B3
:104B6000121002F0D7FF54214DF2131002F0D2FFC1
:104B700001214DF2141002F0CDFF82214DF21510EB
:104B800002F0C8FF01214DF2161002F0C3FFCA2146
:104B90004DF2171002F0BEFF02214DF2181002F084
:104BA000B9FF00214DF2191002F0B4FF02214DF2BD
:104BB0001A1002F0AFFF01214DF21B1002F0AAFF04
:104BC00002214DF21C1002F0A5FF34214DF21D1000
:104BD00002F0A0FF02214DF21E1002F09BFF6721A0
:104BE0004DF21F1002F096FF02214DF2201002F04C
:104BF00091FF84214DF2211002F08CFF02214DF231
:104C0000221002F087FFA4214DF2231002F082FF50
:104C100002214DF2241002F07DFFB7214DF2251044
:104C200002F078FF02214DF2261002F073FFCF212F
:104C30004DF2271002F06EFF02214DF2281002F013
:104C400069FFDE214DF2291002F064FF02214DF2CE
:104C50002A1002F05FFFF2214DF22B1002F05AFFF2
:104C600002214DF22C1002F055FFFE214DF22D10C5
:104C700002F050FF03214DF22E1002F04BFF1021E5
:104C80004DF22F1002F046FF03214DF2301002F0DA
:104C900041FF33214DF2311002F03CFF03214DF270
:104CA000321002F037FF6D214DF2331002F032FF67
:104CB00000214FF4524002F02DFF33214DF201202C
:104CC00002F028FF00214DF2022002F023FF01E054
:104CD0009000002034214DF2032002F01BFF002140
:104CE0004DF2042002F016FF3A214DF2052002F0A9
:104CF00011FF00214DF2062002F00CFF4A214DF277
:104D0000072002F007FF00214DF2082002F002FF09
:104D10005C214DF2092002F0FDFE00214DF20A2037
:104D200002F0F8FE81214DF20B2002F0F3FE00218B
:104D30004DF20C2002F0EEFEA6214DF20D2002F005
:104D4000E9FE00214DF20E2002F0E4FEE5214DF2D5
:104D50000F2002F0DFFE01214DF2102002F0DAFEFA
:104D600013214DF2112002F0D5FE01214DF2122047
:104D700002F0D0FE54214DF2132002F0CBFE0121AF
:104D80004DF2142002F0C6FE82214DF2152002F0F1
:104D9000C1FE01214DF2162002F0BCFECA214DF2E7
:104DA000172002F0B7FE02214DF2182002F0B2FEE9
:104DB00000214DF2192002F0ADFE02214DF21A2021
:104DC00002F0A8FE01214DF21B2002F0A3FE0221F9
:104DD0004DF21C2002F09EFE34214DF21D2002F007
:104DE00099FE02214DF21E2002F094FE67214DF241
:104DF0001F2002F08FFE02214DF2202002F08AFED9
:104E000084214DF2212002F085FE02214DF2222064
:104E100002F080FEA4214DF2232002F07BFE02214D
:104E20004DF2242002F076FEB7214DF2252002F04B
:104E300071FE02214DF2262002F06CFECF214DF2D0
:104E4000272002F067FE02214DF2282002F062FEC8
:104E5000DE214DF2292002F05DFE02214DF22A20D2
:104E600002F058FEF2214DF22B2002F053FE0221F7
:104E70004DF22C2002F04EFEFE214DF22D2002F0CC
:104E800049FE03214DF22E2002F044FE10214DF286
:104E90002F2002F03FFE03214DF2302002F03AFEB7
:104EA00033214DF2312002F035FE03214DF2322044
:104EB00002F030FE6D214DF2332002F02BFE002176
:104EC0004FF4534002F026FE33214DF2013002F040
:104ED00021FE00214DF2023002F01CFE34214DF281
:104EE000033002F017FE00214DF2043002F012FEF2
:104EF0003A214DF2053002F00DFE00214DF2063050
:104F000002F008FE4A214DF2073002F003FE0021B4
:104F10004DF2083002F0FEFD5C214DF2093002F046
:104F2000F9FD00214DF20A3002F0F4FD81214DF22D
:104F30000B3002F0EFFD00214DF20C3002F0EAFDE3
:104F4000A6214DF20D3002F0E5FD00214DF20E30AC
:104F500002F0E0FDE5214DF20F3002F0DBFD012112
:104F60004DF2103002F0D6FD13214DF2113002F057
:104F7000D1FD01214DF2123002F0CCFD54214DF251
:104F8000133002F0C7FD01214DF2143002F0C2FDD2
:104F900082214DF2153002F0BDFD01214DF2163097
:104FA00002F0B8FDCA214DF2173002F0B3FD022124
:104FB0004DF2183002F0AEFD00214DF2193002F032
:104FC000A9FD02214DF21A3002F0A4FD01214DF29B
:104FD0001B3002F09FFD02214DF21C3002F09AFDC1
:104FE00034214DF21D3002F095FD02214DF21E30AC
:104FF00002F090FD67214DF21F3002F08BFD02217F
:105000004DF2203002F086FD84214DF2213002F075
:1050100081FD02214DF2223002F07CFDA4214DF2EF
:10502000233002F077FD02214DF2243002F072FDB0
:10503000B7214DF2253002F06DFD02214DF22630F0
:1050400002F068FDCF214DF2273002F063FD02210E
:105050004DF2283002F05EFDDE214DF2293002F0E3
:1050600059FD02214DF22A3002F054FDF2214DF299
:105070002B3002F04FFD02214DF22C3002F04AFDA0
:10508000FE214DF22D3002F045FD03214DF22E3070
:1050900002F040FD10214DF22F3002F03BFD0321C4
:1050A0004DF2303002F036FD33214DF2313002F056
:1050B00031FD03214DF2323002F02CFD6D214DF215
:1050C000333002F027FD00214FF4544002F022FD5E
:1050D00033214DF2014002F01DFD00214DF202404E
:1050E00002F018FD34214DF2034002F013FD0021BF
:1050F0004DF2044002F00EFD3A214DF2054002F05F
:1051000009FD00214DF2064002F004FD4A214DF256
:10511000074002F0FFFC00214DF2084002F0FAFCCB
:105120005C214DF2094002F0F5FC00214DF20A40ED
:1051300002F0F0FC81214DF20B4002F0EBFC00216B
:105140004DF20C4002F0E6FCA6214DF20D4002F0BB
:10515000E1FC00214DF20E4002F0DCFCE5214DF2B5
:105160000F4002F0D7FC01214DF2104002F0D2FCBA
:1051700013214DF2114002F0CDFC01214DF21240FD
:1051800002F0C8FC54214DF2134002F0C3FC01218F
:105190004DF2144002F0BEFC82214DF2154002F0A7
:1051A000B9FC01214DF2164002F0B4FCCA214DF2C7
:1051B000174002F0AFFC02214DF2184002F0AAFCA9
:1051C00000214DF2194002F0A5FC02214DF21A40D7
:1051D00002F0A0FC01214DF21B4002F09BFC00E01C
:1051E00004E302214DF21C4002F094FC34214DF204
:1051F0001D4002F08FFC02214DF21E4002F08AFC9D
:1052000067214DF21F4002F085FC02214DF2204043
:1052100002F080FC84214DF2214002F07BFC02214F
:105220004DF2224002F076FCA4214DF2234002F020
:1052300071FC02214DF2244002F06CFCB7214DF2CA
:10524000254002F067FC02214DF2264002F062FC8C
:10525000CF214DF2274002F05DFC02214DF22840A3
:1052600002F058FCDE214DF2294002F053FC0221ED
:105270004DF22A4002F04EFCF2214DF22B4002F09A
:1052800049FC02214DF22C4002F044FCFE214DF27B
:105290002D4002F03FFC03214DF22E4002F03AFC7B
:1052A00010214DF22F4002F035FC03214DF2304029
:1052B00002F030FC33214DF2314002F02BFC03218F
:1052C0004DF2324002F026FC6D214DF2334002F0E7
:1052D00021FC00214FF4554002F01CFC33214DF21B
:1052E000015002F017FC00214DF2025002F012FCB6
:1052F00034214DF2035002F00DFC00214DF2045018
:1053000002F008FC3A214DF2055002F003FC0021A6
:105310004DF2065002F0FEFB4A214DF2075002F01A
:10532000F9FB00214DF2085002F0F4FB5C214DF234
:10533000095002F0EFFB00214DF20A5002F0EAFBA7
:1053400081214DF20B5002F0E5FB00214DF20C5093
:1053500002F0E0FBA6214DF20D5002F0DBFB002134
:105360004DF20E5002F0D6FBE5214DF20F5002F047
:10537000D1FB01214DF2105002F0CCFB13214DF274
:10538000115002F0C7FB01214DF2125002F0C2FB96
:1053900054214DF2135002F0BDFB01214DF2145087
:1053A00002F0B8FB82214DF2155002F0B3FB01214F
:1053B0004DF2165002F0AEFBCA214DF2175002F02A
:1053C000A9FB02214DF2185002F0A4FB00214DF27E
:1053D000195002F09FFB02214DF21A5002F09AFB85
:1053E00001214DF21B5002F095FB02214DF21C50A1
:1053F00002F090FB34214DF21D5002F08BFB022194
:105400004DF21E5002F086FB67214DF21F5002F054
:1054100081FB02214DF2205002F07CFB84214DF2F1
:10542000215002F077FB02214DF2225002F072FB74
:10543000A4214DF2235002F06DFB02214DF22450C5
:1054400002F068FBB7214DF2255002F063FB022108
:105450004DF2265002F05EFBCF214DF2275002F0B4
:1054600059FB02214DF2285002F054FBDE214DF28F
:10547000295002F04FFB02214DF22A5002F04AFB64
:10548000F2214DF22B5002F045FB02214DF22C503F
:1054900002F040FBFE214DF22D5002F03BFB0321B8
:1054A0004DF22E5002F036FB10214DF22F5002F03B
:1054B00031FB03214DF2305002F02CFB33214DF231
:1054C000315002F027FB03214DF2325002F022FB53
:1054D0006D214DF2335002F01DFB00214FF4564078
:1054E00002F018FB33214DF2016002F013FB0021A2
:1054F0004DF2026002F00EFB34214DF2036002F027
:1055000009FB00214DF2046002F004FB3A214DF248
:10551000056002F0FFFA00214DF2066002F0FAFA8F
:105520004A214DF2076002F0F5FA00214DF20860C1
:1055300002F0F0FA5C214DF2096002F0EBFA002172
:105540004DF20A6002F0E6FA81214DF20B6002F0A2
:10555000E1FA00214DF20C6002F0DCFAA6214DF2D6
:105560000D6002F0D7FA00214DF20E6002F0D2FA7F
:10557000E5214DF20F6002F0CDFA01214DF21060ED
:1055800002F0C8FA13214DF2116002F0C3FA0121B2
:105590004DF2126002F0BEFA54214DF2136002F097
:1055A000B9FA01214DF2146002F0B4FA82214DF2F1
:1055B000156002F0AFFA01214DF2166002F0AAFA6E
:1055C000CA214DF2176002F0A5FA02214DF21860CF
:1055D00002F0A0FA00214DF2196002F09BFA0221BC
:1055E0004DF21A6002F096FA01214DF21B6002F0B2
:1055F00091FA02214DF21C6002F08CFA34214DF236
:105600001D6002F087FA02214DF21E6002F082FA5C
:1056100067214DF21F6002F07DFA02214DF22060F9
:1056200002F078FA84214DF2216002F073FA02212F
:105630004DF2226002F06EFAA4214DF2236002F0D6
:1056400069FA02214DF2246002F064FAB7214DF2AA
:10565000256002F05FFA02214DF2266002F05AFA4C
:10566000CF214DF2276002F055FA02214DF2286059
:1056700002F050FADE214DF2296002F04BFA0221CD
:105680004DF22A6002F046FAF2214DF22B6002F050
:1056900041FA02214DF22C6002F03CFAFE214DF25B
:1056A0002D6002F037FA03214DF22E6002F032FA3B
:1056B00010214DF22F6002F02DFA03214DF23060DF
:1056C00002F028FA33214DF2316002F023FA03216F
:1056D0004DF2326002F01EFA6D214DF2336002F09D
:1056E00019FA55214FF4704002F014FAAA214FF232
:1056F000010002F00FFA52214FF2020002F00AFA02
:1057000008214FF2030002F005FA00214FF20400D5
:1057100002F000FACC214FF4314002F0FBF90021F5
:105720004BF2011002F0F6F905214FF4364002F079
:10573000F1F970214FF4374002F0ECF970214BF28F
:10574000017002F0E7F901214FF4384002F0E2F96C
:1057500003214BF6010002F0DDF903214BF60200B4
:1057600002F0D8F903214BF6030002F0D3F902212D
:105770004FF43C4002F0CEF900214BF6014002F01C
:10578000C9F900214BF6024002F0C4F9D0214FF4D0
:10579000494002F0BFF902214CF6011002F0BAF9BB
:1057A00050214CF6021002F0B5F950214CF60310CE
:1057B00002F0B0F950214CF6041002F0ABF90021D0
:1057C0004FF4545002F0A6F955214FF4685002F0FE
:1057D000A1F94FF4885002F083F9782002F04AFFD3
:1057E0004FF4245002F07CF901F0DBBBFE488088C6
:1057F00049F2253188427DD147F6F001E52002F0DB
:1058000089F94FF48071012002F084F94FF4E061CE
:10581000022002F07FF941F23001032002F07AF910
:105820000021042002F076F940F20221082002F063
:1058300071F90021092002F06DF900210A2002F01F
:1058400069F900210C2002F065F900210D2002F019
:1058500061F900210F2002F05DF90021102002F013
:1058600059F90721112002F055F90021122002F008
:1058700051F90021132002F04DF90021072002F018
:1058800049F941F29061102002F044F940F22721D9
:10589000112002F03FF99D21122002F03BF94FF454
:1058A000C851132002F036F92521292002F032F9DF
:1058B0000D212B2002F02EF90721302002F02AF9C9
:1058C00040F20331312002F025F90321322002F0A9
:1058D00021F940F20621352002F01CF9082136207A
:1058E00002F018F940F20641372002F013F94FF4A4
:1058F000417100E058E0382002F00CF9072139200E
:1059000002F008F940F202613C2002F003F908219C
:105910003D2002F0FFF80021502002F0FBF8EF21BB
:10592000512002F0F7F80021522002F0F3F840F283
:105930003F11532002F0EEF84FF42741602002F0AF
:10594000E9F80121612002F0E5F800216A2002F067
:10595000E1F80021802002F0DDF80021812002F032
:10596000D9F80021822002F0D5F80021832002F02E
:10597000D1F80021842002F0CDF80021852002F02A
:10598000C9F81021902002F0C5F84FF4C0619220B0
:1059900002F0C0F840F23311072002F0BBF82221D8
:1059A000002002F0B7F81FE78F48808849F22831BD
:1059B00088427DD141F28F01EC2002F0ABF841F238
:1059C0003421EF2002F0A6F84FF48071012002F09C
:1059D000A1F84FF4E061022002F09CF841F230019E
:1059E000032002F097F80021042002F093F840F21F
:1059F0000221082002F08EF80021092002F08AF826
:105A000000210A2002F086F801210C2002F082F821
:105A100000210D2002F07EF800210F2002F07AF81C
:105A20000021102002F076F80721112002F072F810
:105A30000021122002F06EF80021132002F06AF813
:105A40000121072002F066F8322002F0EDFD41F25C
:105A50009041102002F05EF840F22721112002F060
:105A600059F8322002F0E0FD8A21122002F052F8AB
:105A7000322002F0D9FD4FF4D051132002F04AF841
:105A80000621292002F046F80D212B2002F042F8D1
:105A9000322002F0C9FD0021202002F03BF8002155
:105AA000212002F037F8322002F0BEFD002100E094
:105AB00075E0302002F02EF840F20461312002F04F
:105AC00029F840F20531322002F024F80021352077
:105AD00002F020F840F60941362002F01BF84FF49E
